:10000000B3C00000E1C00000DFC00000DDC00000A0
:10001000DBC00000D9C00000D7C00000D5C0000080
:10002000D3C00000D1C00000CFC00000CDC0000090
:10003000CBC00000C9C00000C7C00000C5C00000A0
:10004000C3C00000C1C00000BFC00000BDC00000B0
:10005000BBC00000B9C00000B7C00000DFC2000094
:10006000B3C00000A5C200007AC20000ADC000000D
:10007000ABC00000A9C00000A7C00000A5C00000E0
:10008000A3C00000A1C000009FC000009DC00000F0
:100090009BC0000099C0000097C0000095C0000000
:1000A00093C0000091C000008FC000008DC0000010
:1000B0008BC0000089C0000087C0000085C0000020
:1000C00083C0000081C000007FC000007DC0000030
:1000D0007BC0000079C0000077C0000075C0000040
:1000E00073C0000007634236B79BD8A71A39685619
:1000F00018AEBAAB558C1D3CB7CC5763BD6DEDFD4A
:10010000753EF6177231BF000000803F0800000006
:10011000BE922449123EABAAAA2ABECDCCCC4C3EFC
:1001200000000080BEABAAAAAA3E00000000BF00EB
:100130000000803F0000000000084178D3BB4387E7
:10014000D1133D190E3CC3BD4282AD2B3E68EC82FB
:1001500076BED98FE1A93E4C80EFFFBE01C4FF7F80
:100160003F0000000000C50611241FBECFEFD1E202
:10017000DEBFCDBF00E00CBF12E0A0E0B2E0E2E4E1
:10018000F5E100E00BBF02C007900D92AE31B10760
:10019000D9F727E0AEE1B2E001C01D92A638B20760
:1001A000E1F710E0C4EBD0E000E006C021970109C0
:1001B000802FFE010E94930AC33BD10780E008070D
:1001C000A9F776D20C949F0A1BCFCF92DF92EF92C1
:1001D000FF920F931F93CF93DF936C017A018B01F2
:1001E000C0E0D0E0CE15DF0589F0D8016D918D011A
:1001F000D601ED91FC910190F081E02DC601199599
:10020000892B11F47E0102C02196ECCFC701DF914A
:10021000CF911F910F91FF90EF90DF90CF900895B5
:10022000089580E090E00895FC01538D448D252FC2
:1002300030E0842F90E0821B930B541710F0CF9680
:10024000089501970895FC01918D828D981761F0B2
:10025000828DDF01A80FB11D5D968C91928D9F5FFD
:100260009F73928F90E008958FEF9FEF0895FC01A8
:10027000918D828D981731F0828DE80FF11D858D5B
:1002800090E008958FEF9FEF0895FC01918D228DEE
:10029000892F90E0805C9F4F821B91098F73992773
:1002A000089589EE96E0F1DF21E0892B09F420E042
:1002B000822F0895FC01848DDF01A80FB11DA35A80
:1002C000BF4F2C91848D90E001968F739927848F76
:1002D000A689B7892C93A089B1898C9180648C936D
:1002E000938D848D981306C00288F389E02D808158
:1002F0008F7D80830895EF92FF920F931F93CF938A
:10030000DF93EC0181E0888F9B8D8C8D981305C065
:10031000E889F989808185FD23C0F62E0B8D10E0D8
:100320000F5F1F4F0F731127E02E8C8DE8120BC04B
:100330000FB607FCFACFE889F989808185FFF5CFF0
:10034000CE01B8DFF2CF8B8DFE01E80FF11DE35A2D
:10035000FF4FF0820B8FEA89FB898081806207C0A2
:10036000EE89FF896083E889F989808180648083D0
:1003700081E090E0DF91CF911F910F91FF90EF907E
:100380000895CF93DF93EC01888D8823C1F0EA892B
:10039000FB89808185FD05C0A889B9898C9186FD7E
:1003A0000EC00FB607FCF5CF808185FFF2CFA8897C
:1003B000B9898C9185FFEDCFCE017CDFE8CFDF914D
:1003C000CF91089580E090E0892B19F06ADF8111C8
:1003D00025C080E090E0892B41F080E090E0892BFF
:1003E00021F00E94000081111CC080E090E0892B68
:1003F00041F080E090E0892B21F00E940000811103
:1004000013C080E090E0892BA1F080E090E0892B80
:1004100081F00E94000081110AC008950E9400002E
:10042000D8CF0E940000E1CF0E940000EACF0C94D8
:1004300000000895863308F0865390917B00282FA2
:100440002870977F922B90937B00877080648093B5
:100450007C0080917A00806480937A0080917A0099
:1004600086FDFCCF809178002091790090E0922B5E
:1004700008953FB7F8948091230290912402A091AF
:100480002502B091260226B5A89B05C02F3F19F082
:100490000196A11DB11D3FBFBA2FA92F982F882704
:1004A000820F911DA11DB11DBC01CD0142E0660F5F
:1004B000771F881F991F4A95D1F70895009761F01B
:1004C000FC0101900020E9F73197AF01481B590B5F
:1004D000BC0189EE96E079CE80E090E008958F929D
:1004E0009F92AF92BF920F931F93CF93DF93CDB79D
:1004F000DEB7A1970FB6F894DEBF0FBECDBF19A22D
:10050000423008F44AE08E010F5D1F4F842E912C7B
:10051000A12CB12CA5019401E4D7E62FB901CA01A1
:1005200001501109EA3014F4E05D01C0E95CD80122
:10053000EC93232B242B252B69F7C801BFDFA19651
:100540000FB6F894DEBF0FBECDBFDF91CF911F91E4
:100550000F91BF90AF909F908F900895ECD71F920E
:100560000F920FB60F9211240BB60F922F933F9359
:100570004F935F936F937F938F939F93AF93BF93AB
:10058000EF93FF9389EE96E095DEFF91EF91BF9197
:10059000AF919F918F917F916F915F914F913F911B
:1005A0002F910F900BBE0F900FBE0F901F901895BC
:1005B0001F920F920FB60F9211240BB60F922F932A
:1005C0008F939F93EF93FF93E091F906F091FA06D2
:1005D0008081E091FF06F091000782FD12C09081BA
:1005E000809102078F5F8F7320910307821751F06C
:1005F000E0910207F0E0E751F94F958F80930207F1
:1006000001C08081FF91EF919F918F912F910F9069
:100610000BBE0F900FBE0F901F9018951F920F9258
:100620000FB60F9211242F933F938F939F93AF9305
:10063000BF9380911F0290912002A0912102B0915E
:10064000220230911E0223E0230F2D3720F4019661
:10065000A11DB11D05C026E8230F0296A11DB11DE5
:1006600020931E0280931F0290932002A0932102E8
:10067000B09322028091230290912402A09125023E
:10068000B09126020196A11DB11D80932302909383
:100690002402A0932502B0932602BF91AF919F91AF
:1006A0008F913F912F910F900FBE0F901F90189533
:1006B000CF93DF9300D000D0CDB7DEB7789484B568
:1006C000826084BD84B5816084BD85B5826085BD4E
:1006D00085B5816085BD80916E00816080936E00DC
:1006E00010928100809181008260809381008091CE
:1006F000810081608093810080918000816080937F
:1007000080008091B10084608093B1008091B0003E
:1007100081608093B000809191008260809391000D
:100720008091910081608093910080919000816020
:10073000809390008091A10082608093A1008091BD
:10074000A10081608093A1008091A00081608093CE
:10075000A00080912101826080932101809121017C
:10076000816080932101809120018160809320012C
:1007700080917A00846080937A0080917A00826010
:1007800080937A0080917A00816080937A008091D2
:100790007A00806880937A001092C100E091F90697
:1007A000F091FA0682E08083E091F506F091F6067A
:1007B0001082E091F706F091F8068FEC808310929A
:1007C0000107E091FD06F091FE0686E08083E0914E
:1007D000FB06F091FC06808180618083E091FB063E
:1007E000F091FC06808188608083E091FB06F091A7
:1007F000FC06808180688083E091FB06F091FC0616
:1008000080818F7D808380E090E0A0E8BFE38093CB
:10081000270290932802A0932902B0932A024DEC5C
:100820005CEC6CE47EE340932B0250932C026093CB
:100830002D0270932E0240E050E060E87EE340938A
:100840002F0250933002609331027093320221E004
:1008500030E03093E8062093E7068093C30390933B
:10086000C403A093C503B093C60386E3E3DDBC01D4
:10087000990F880B990BB5D32AE038E240EA5BE385
:1008800064D46B017C016093E3067093E40680936B
:10089000E5069093E60620E030E040E450E4B8D46A
:1008A0002AEF3EE748E451EC50D44B015C01A7012C
:1008B0009601C701B60149D428EB3EE94DEE52E45A
:1008C00044D49B01AC01C501B4018DD24B015C0144
:1008D0002FE832EA4EEC53E4C701B60136D49B014F
:1008E000AC01C501B4017ED226E636EF47E254E4FE
:1008F0007AD26B017C014B015C01609353057093CC
:100900005405809355059093560560933302709378
:10091000340280933502909336029B01AC01C4D41B
:10092000882319F082E192E024C026013701E8947F
:1009300077F82FEF3FEF4FE75FE7C301B201B4D481
:1009400081110CC02FEF3FEF4FE75FE7C301B2010A
:10095000AED218161CF486E192E00BC02FEF3FEFE9
:100960004FE75FE4C701B601ECD318163CF48AE107
:1009700092E0A4DD32E0232E312C3EC12FEF3FEF79
:100980004FE75FECC701B60192D287FDF0CF20E0C0
:1009900030E0A901C701B6018AD287FF11C0E091FA
:1009A000E906F091EA060190F081E02D6DE289EE12
:1009B00096E0199546015701B7FAB094B7F8B0948C
:1009C0002AE037ED43EA5BE3C501B4010CD24B01E9
:1009D0005C01D9D26B017C0102D39B01AC01C50142
:1009E000B40100D24B015C014AE0C701B60177DDDA
:1009F000E091E906F091EA060190F081E02D6EE2C7
:100A000089EE96E0199520E030E040E251E4C5011E
:100A1000B4019BD34B015C01B6D26B01E12CF12CEC
:100A20004AE0C701B6015BDDC701B601D8D29B0120
:100A3000AC01C501B401D6D120E030E040E251E480
:100A400084D3A1D280E090E04AE049DD93CFF2DC8C
:100A5000BC01990F880B990BC4D22AE038E240EA16
:100A60005BE373D36B017C016093E3067093E40650
:100A70008093E5069093E60620E030E040E450E401
:100A8000C7D32AEF3EE748E451EC5FD34B015C014A
:100A9000A7019601C701B60158D328EB3EE94DEEF8
:100AA00052E453D39B01AC01C501B4019CD14B016D
:100AB0005C012FE832EA4EEC53E4C701B60145D39E
:100AC0009B01AC01C501B4018DD126E636EF47E2AA
:100AD00054E489D14B015C0160935705709358052C
:100AE0008093590590935A05209133023091340236
:100AF000409135025091360229833A834B835C83BF
:100B0000C0902702D0902802E0902902F0902A029B
:100B100020912F02309130024091310250913202E7
:100B20006091C3037091C4038091C5039091C60383
:100B30005AD19B01AC01C701B60107D32B013C017F
:100B4000A701960102D320912B0230912C024091F3
:100B50002D0250912E0247D19B01AC01C301B2017D
:100B6000AAD12B013C0129813A814B815C81C701CB
:100B7000B601EBD29B01AC01C501B40133D19B019D
:100B8000AC01C301B201E1D29B01AC0169817A8160
:100B90008B819C8128D160933702709338028093B7
:100BA000390290933A023092E8062092E70661DC1F
:100BB0004B015C018AE0C82ED12CE12CF12C59DCD0
:100BC000DC01CB0188199909AA09BB09883E934029
:100BD000A105B10558F031E0C31AD108E108F108C8
:100BE00048EE840E43E0941EA11CB11CC114D10434
:100BF000E104F10421F7E6DB2091E7063091E806F5
:100C00003E832D8386E3243631050CF020CF12DCA1
:100C1000BC01990F880B990BE4D12AE038E240EA35
:100C20005BE393D26B017C016093E3067093E4066F
:100C30008093E5069093E60620E030E040E450E43F
:100C4000E7D22AEF3EE748E451EC7FD24B015C014A
:100C5000A7019601C701B60178D228EB3EE94DEE17
:100C600052E473D29B01AC01C501B401BCD04B016D
:100C70005C012FE832EA4EEC53E4C701B60165D2BD
:100C80009B01AC01C501B401ADD026E636EF47E2C9
:100C900054E4A9D04B015C010D811E81000F111F8E
:100CA000000F111FF801ED5AFA4F80829182A28243
:100CB000B3828D819E810197880F991F880F991F9C
:100CC000FC01ED5CFD4F20813181428153812983FC
:100CD0003A834B835C83C0902702D0902802E09037
:100CE0002902F0902A02FC01ED53FC4F20912F02C3
:100CF0003091300240913102509132026081718115
:100D00008281938170D09B01AC01C701B6011DD2D5
:100D10002B013C010D5C1D4FA701960116D22091BD
:100D20002B0230912C0240912D0250912E025BD06B
:100D30009B01AC01C301B201BED02B013C01298152
:100D40003A814B815C81C701B601FFD19B01AC01A7
:100D5000C501B40147D09B01AC01C301B201F5D17B
:100D60009B01AC0169817A818B819C813CD0D80147
:100D70006D937D938D939C9313978D819E810196A6
:100D80009093E8068093E70612CFE9EEF6E013822F
:100D9000128288EE93E0A0E0B0E084839583A6837E
:100DA000B78384E092E09183808385EC90E095871F
:100DB000848784EC90E09787868780EC90E0918B25
:100DC000808B81EC90E0938B828B82EC90E0958B12
:100DD000848B86EC90E0978B868B118E128E138E0F
:100DE000148E08955058BB27AA270ED070C161D128
:100DF00030F066D120F031F49F3F11F41EF456C15B
:100E00000EF4E095E7FB4CC1E92F72D180F3BA17DD
:100E1000620773078407950718F071F49EF58AC17D
:100E20000EF4E0950B2EBA2FA02D0B01B901900105
:100E30000C01CA01A0011124FF27591B99F0593F49
:100E400050F4503E68F11A16F040A22F232F342F91
:100E50004427585FF3CF469537952795A795F040DF
:100E60005395C9F77EF41F16BA0B620B730B840BF4
:100E7000BAF09150A1F0FF0FBB1F661F771F881FAC
:100E8000C2F70EC0BA0F621F731F841F48F4879504
:100E900077956795B795F7959E3F08F0B3CF9395F3
:100EA000880F08F09927EE0F979587950895D4D06D
:100EB00008F481E008950CD00AC102D140F0F9D0C5
:100EC00030F021F45F3F19F0EBC0511134C1EEC096
:100ED0000FD198F39923C9F35523B1F3951B550B03
:100EE000BB27AA2762177307840738F09F5F5F4FFD
:100EF000220F331F441FAA1FA9F333D00E2E3AF03E
:100F0000E0E830D091505040E695001CCAF729D057
:100F1000FE2F27D0660F771F881FBB1F26173707A6
:100F20004807AB07B0E809F0BB0B802DBF01FF27D6
:100F300093585F4F2AF09E3F510568F0B1C0FBC047
:100F40005F3FECF3983EDCF3869577956795B79510
:100F5000F7959F5FC9F7880F911D9695879597F92B
:100F60000895E1E0660F771F881FBB1F62177307A4
:100F70008407BA0720F0621B730B840BBA0BEE1FB9
:100F800088F7E0950895BCD088F09F5790F0B92F6E
:100F90009927B751A0F0D1F0660F771F881F991FCE
:100FA0001AF0BA95C9F712C0B13081F0C3D0B1E0E0
:100FB0000895C0C0672F782F8827B85F39F0B93FF0
:100FC000CCF3869577956795B395D9F73EF49095D0
:100FD0008095709561957F4F8F4F9F4F0895E8944E
:100FE00009C097FB3EF490958095709561957F4F71
:100FF0008F4F9F4F9923A9F0F92F96E9BB2793951F
:10100000F695879577956795B795F111F8CFFAF42E
:10101000BB0F11F460FF1BC06F5F7F4F8F4F9F4F5F
:1010200016C0882311F096E911C0772321F09EE8BD
:10103000872F762F05C0662371F096E8862F70E023
:1010400060E02AF09A95660F771F881FDAF7880FFD
:101050009695879597F90895990F0008550FAA0B53
:10106000E0E8FEEF16161706E807F907C0F01216BB
:101070001306E407F50798F0621B730B840B950BBE
:1010800039F40A2661F0232B242B252B21F4089513
:101090000A2609F4A140A6958FEF811D811D0895B0
:1010A00097F99F6780E870E060E008959FEF80EC1B
:1010B000089500240A9416161706180609060895BE
:1010C00000240A9412161306140605060895092E24
:1010D0000394000C11F4882352F0BB0F40F4BF2B93
:1010E00011F460FF04C06F5F7F4F8F4F9F4F0895D3
:1010F00057FD9058440F551F59F05F3F71F04795C9
:10110000880F97FB991F61F09F3F79F087950895AD
:10111000121613061406551FF2CF4695F1DF08C0CC
:10112000161617061806991FF1CF869571056105E9
:1011300008940895E894BB2766277727CB0197F991
:1011400008958ADF08F48FEF08950BD0C0CFB1DF88
:1011500028F0B6DF18F0952309F0A2CFA7CF11240D
:10116000EACFC6DFA0F3959FD1F3950F50E0551F4E
:10117000629FF001729FBB27F00DB11D639FAA27EC
:10118000F00DB11DAA1F649F6627B00DA11D661F3B
:10119000829F2227B00DA11D621F739FB00DA11D5C
:1011A000621F839FA00D611D221F749F3327A00D16
:1011B000611D231F849F600D211D822F762F6A2FB2
:1011C00011249F5750408AF0E1F088234AF0EE0F37
:1011D000FF1FBB1F661F771F881F91505040A9F744
:1011E0009E3F510570F05CCFA6CF5F3FECF3983E79
:1011F000DCF3869577956795B795F795E7959F5FAB
:10120000C1F7FE2B880F911D9695879597F9089544
:10121000FA01EE0FFF1F30962105310599F1611596
:10122000710561F48038BFE39B0749F168949038F9
:10123000810561F08038BFEF9B0741F0992342F5AB
:10124000FF3FE1053105210511F1E8940894E79588
:10125000D901AA2329F4AB2FBE2FF85FD0F310C019
:10126000FF5F70F4A695E0F7F73950F019F0FF3AF8
:1012700038F49F779F930CD00F9007FC90580895F7
:101280003EF014CF60E070E080E89FE308954FE700
:101290009F775F934F933F932F93A2D02F913F91CE
:1012A0004F915F9152DF09C0D7DE880B990B0895EB
:1012B00019F40EF0F5CE3ECFF9CE22DFC8F3963802
:1012C000C0F707F80F92E8942BE33AEA48EB5FE7A0
:1012D0004ADF0F920F920F924DB75EB70F92C0D0B8
:1012E000E4EEF0E016D04F915F91EF91FF91E5951C
:1012F000EE1FFF1F49F0FE57E0684427EE0F441F22
:10130000FA95E1F74195550B32D00F9007FE26C0B4
:101310000895DF93CF931F930F93FF92EF92DF9285
:101320007B018C01689405C0DA2EEF011ADFFE0103
:10133000E894A5912591359145915591AEF3EF0132
:1013400063DDFE019701A801DA9479F7DF90EF9051
:10135000FF900F911F91CF91DF9108959B01AC01F8
:1013600060E070E080E89FE3A6CD9ACEACC0C8DE16
:10137000E8F39923D9F3940F511DBBF391505040DA
:1013800094F059F0882332F0660F771F881F915030
:101390005040C1F79E3F510544F7880F911D969527
:1013A000879597F908955F3FACF0983E9CF0BB2776
:1013B000869577956795B79508F4B1609395C1F7D1
:1013C000BB0F58F711F460FFE8CF6F5F7F4F8F4F6F
:1013D0009F4FE3CFB0CE0EF076C068CE689460CE5B
:1013E0008FDEC8F39923D1F3C6F3DF93CF931F9316
:1013F0000F93FF92C92FDD2788232AF02197660FCC
:10140000771F881FDAF720E030E040E85FEB9FE3CA
:10141000883920F0803E30F021968F77E4DCECE0D4
:10142000F1E003C0E0DCE9E3F1E073DF8B01BE0132
:10143000EC01FB2E6F5771097595771F880B990B7F
:10144000D0DD28E132E741E35FE38BDEAF2D980189
:10145000AE01FF900F911F91CF91DF91D5DC37CE78
:10146000FA01DC01AA0FBB1F9B01AC01BF5728F496
:1014700022273327442750781FC0B75188F4AB2F59
:101480000024469537952795011CA395D2F300209B
:1014900069F0220F331F441FB395DAF30DD0A2CCAD
:1014A00061307105A0E88A07B94630F49B01AC01B0
:1014B0006627772788279078309621F0208331831C
:1014C0004283538308959F3F31F0915020F48795D4
:1014D00077956795B795880F911D9695879597F99C
:1014E0000895A1E21A2EAA1BBB1BFD010DC0AA1F65
:1014F000BB1FEE1FFF1FA217B307E407F50720F07D
:10150000A21BB30BE40BF50B661F771F881F991FF7
:101510001A9469F760957095809590959B01AC0140
:10152000BD01CF010895EE0FFF1F881F8BBF0790ED
:10153000F691E02D199481E090E0F89400C0F894C1
:02154000FFCFDB
:10154200000000007B01E5001401C10145012301F7
:0E15520037016E616E00696E66006F7666008E
:00000001FF
